{
    "contractName": "TokenSaleHost",
    "abi": [
        {
            "inputs": [],
            "stateMutability": "nonpayable",
            "type": "constructor"
        },
        {
            "anonymous": false,
            "inputs": [
                {
                    "indexed": true,
                    "internalType": "address",
                    "name": "previousOwner",
                    "type": "address"
                },
                {
                    "indexed": true,
                    "internalType": "address",
                    "name": "newOwner",
                    "type": "address"
                }
            ],
            "name": "OwnershipTransferred",
            "type": "event"
        },
        {
            "anonymous": false,
            "inputs": [
                {
                    "indexed": true,
                    "internalType": "address",
                    "name": "creator",
                    "type": "address"
                },
                {
                    "indexed": false,
                    "internalType": "uint256",
                    "name": "id",
                    "type": "uint256"
                }
            ],
            "name": "SessionScheduled",
            "type": "event"
        },
        {
            "anonymous": false,
            "inputs": [
                {
                    "indexed": true,
                    "internalType": "address",
                    "name": "purchaser",
                    "type": "address"
                },
                {
                    "indexed": true,
                    "internalType": "address",
                    "name": "beneficiary",
                    "type": "address"
                },
                {
                    "indexed": false,
                    "internalType": "uint256",
                    "name": "value",
                    "type": "uint256"
                },
                {
                    "indexed": false,
                    "internalType": "uint256",
                    "name": "amount",
                    "type": "uint256"
                }
            ],
            "name": "TokenPurchase",
            "type": "event"
        },
        {
            "stateMutability": "payable",
            "type": "fallback"
        },
        {
            "inputs": [
                {
                    "internalType": "uint256",
                    "name": "_id",
                    "type": "uint256"
                },
                {
                    "internalType": "address",
                    "name": "_beneficiary",
                    "type": "address"
                }
            ],
            "name": "buyTokens",
            "outputs": [],
            "stateMutability": "payable",
            "type": "function"
        },
        {
            "inputs": [
                {
                    "internalType": "uint256",
                    "name": "_start",
                    "type": "uint256"
                },
                {
                    "internalType": "uint256",
                    "name": "_stop",
                    "type": "uint256"
                },
                {
                    "internalType": "uint256",
                    "name": "_rate",
                    "type": "uint256"
                },
                {
                    "internalType": "uint8",
                    "name": "_decimal",
                    "type": "uint8"
                },
                {
                    "internalType": "uint256",
                    "name": "_issue",
                    "type": "uint256"
                },
                {
                    "internalType": "uint256",
                    "name": "_max",
                    "type": "uint256"
                },
                {
                    "internalType": "uint256",
                    "name": "_threshold",
                    "type": "uint256"
                },
                {
                    "internalType": "address",
                    "name": "_chainlink",
                    "type": "address"
                },
                {
                    "internalType": "address",
                    "name": "_token",
                    "type": "address"
                }
            ],
            "name": "create",
            "outputs": [
                {
                    "internalType": "uint256",
                    "name": "",
                    "type": "uint256"
                }
            ],
            "stateMutability": "payable",
            "type": "function"
        },
        {
            "inputs": [
                {
                    "internalType": "uint256",
                    "name": "_id",
                    "type": "uint256"
                }
            ],
            "name": "hasClosed",
            "outputs": [
                {
                    "internalType": "bool",
                    "name": "",
                    "type": "bool"
                }
            ],
            "stateMutability": "view",
            "type": "function"
        },
        {
            "inputs": [
                {
                    "internalType": "address",
                    "name": "token",
                    "type": "address"
                }
            ],
            "name": "liquidate",
            "outputs": [],
            "stateMutability": "nonpayable",
            "type": "function"
        },
        {
            "inputs": [
                {
                    "internalType": "bool",
                    "name": "_lock",
                    "type": "bool"
                }
            ],
            "name": "lock",
            "outputs": [],
            "stateMutability": "nonpayable",
            "type": "function"
        },
        {
            "inputs": [],
            "name": "owner",
            "outputs": [
                {
                    "internalType": "address",
                    "name": "",
                    "type": "address"
                }
            ],
            "stateMutability": "view",
            "type": "function"
        },
        {
            "inputs": [],
            "name": "renounceOwnership",
            "outputs": [],
            "stateMutability": "nonpayable",
            "type": "function"
        },
        {
            "inputs": [
                {
                    "internalType": "uint256",
                    "name": "",
                    "type": "uint256"
                }
            ],
            "name": "sessions",
            "outputs": [
                {
                    "internalType": "uint256",
                    "name": "id",
                    "type": "uint256"
                },
                {
                    "internalType": "uint256",
                    "name": "start",
                    "type": "uint256"
                },
                {
                    "internalType": "uint256",
                    "name": "stop",
                    "type": "uint256"
                },
                {
                    "internalType": "uint256",
                    "name": "sync",
                    "type": "uint256"
                },
                {
                    "internalType": "uint256",
                    "name": "rate",
                    "type": "uint256"
                },
                {
                    "internalType": "uint8",
                    "name": "decimal",
                    "type": "uint8"
                },
                {
                    "internalType": "uint256",
                    "name": "issue",
                    "type": "uint256"
                },
                {
                    "internalType": "uint256",
                    "name": "raised",
                    "type": "uint256"
                },
                {
                    "internalType": "uint256",
                    "name": "max",
                    "type": "uint256"
                },
                {
                    "internalType": "uint256",
                    "name": "sold",
                    "type": "uint256"
                },
                {
                    "internalType": "uint256",
                    "name": "threshold",
                    "type": "uint256"
                },
                {
                    "internalType": "address",
                    "name": "chainlink",
                    "type": "address"
                },
                {
                    "internalType": "address",
                    "name": "owner",
                    "type": "address"
                },
                {
                    "internalType": "contract IBEP20",
                    "name": "token",
                    "type": "address"
                }
            ],
            "stateMutability": "view",
            "type": "function"
        },
        {
            "inputs": [
                {
                    "internalType": "uint256",
                    "name": "coinFee",
                    "type": "uint256"
                }
            ],
            "name": "setCoinFee",
            "outputs": [],
            "stateMutability": "nonpayable",
            "type": "function"
        },
        {
            "inputs": [
                {
                    "internalType": "uint256",
                    "name": "tokenFee",
                    "type": "uint256"
                }
            ],
            "name": "setTokenFee",
            "outputs": [],
            "stateMutability": "nonpayable",
            "type": "function"
        },
        {
            "inputs": [
                {
                    "internalType": "address",
                    "name": "newOwner",
                    "type": "address"
                }
            ],
            "name": "transferOwnership",
            "outputs": [],
            "stateMutability": "nonpayable",
            "type": "function"
        },
        {
            "stateMutability": "payable",
            "type": "receive"
        }
    ],
    "bytecode": "608060405234801561001057600080fd5b5061001a3361002e565b60006003556001600581905560045561007e565b600080546001600160a01b038381166001600160a01b0319831681178455604051919092169283917f8be0079c531659141344cd1fd0a4f28419497f9722a3daafe3b4186f6b6457e09190a35050565b6111ee8061008d6000396000f3fe60806040526004361061009a5760003560e01c8063715018a611610061578063715018a61461016b57806383c4b7a3146101805780638da5cb5b14610234578063c625e9b11461025c578063d6d45e011461026f578063f2fde38b1461028f57005b806308f61ae4146100a35780630dd0a042146100c95780632f865568146100e957806331b31b8814610109578063375952fd1461012957005b366100a157005b005b6100b66100b1366004610e95565b6102af565b6040519081526020015b60405180910390f35b3480156100d557600080fd5b506100a16100e4366004610dfd565b610553565b3480156100f557600080fd5b506100a1610104366004610de2565b610599565b34801561011557600080fd5b506100a1610124366004610e37565b61072c565b34801561013557600080fd5b5061015b610144366004610e37565b600090815260016020526040902060020154421190565b60405190151581526020016100c0565b34801561017757600080fd5b506100a1610761565b34801561018c57600080fd5b5061021a61019b366004610e37565b600160208190526000918252604090912080549181015460028201546003830154600484015460058501546006860154600787015460088801546009890154600a8a0154600b8b0154600c8c0154600d909c01549a9b999a9899979860ff90971697959694959394929391926001600160a01b0391821692821691168e565b6040516100c09e9d9c9b9a99989796959493929190610fa0565b34801561024057600080fd5b506000546040516001600160a01b0390911681526020016100c0565b6100a161026a366004610e69565b610797565b34801561027b57600080fd5b506100a161028a366004610e37565b61087e565b34801561029b57600080fd5b506100a16102aa366004610de2565b6108b3565b6001600160a01b038116600090815260026020526040812054829080156102f157600081815260016020526040902060028101544210156102ef57600080fd5b505b6001600160a01b03841661030457600080fd5b428c101561031157600080fd5b8b8b1161031d57600080fd5b600061032761094b565b90506000604051806101c001604052808381526020018f81526020018e8152602001600081526020018d81526020018c60ff1681526020018b8152602001600081526020018a815260200160008152602001898152602001886001600160a01b03168152602001336001600160a01b03168152602001876001600160a01b031681525090508060016000848152602001908152602001600020600082015181600001556020820151816001015560408201518160020155606082015181600301556080820151816004015560a08201518160050160006101000a81548160ff021916908360ff16021790555060c0820151816006015560e082015181600701556101008201518160080155610120820151816009015561014082015181600a015561016082015181600b0160006101000a8154816001600160a01b0302191690836001600160a01b0316021790555061018082015181600c0160006101000a8154816001600160a01b0302191690836001600160a01b031602179055506101a082015181600d0160006101000a8154816001600160a01b0302191690836001600160a01b031602179055509050508160026000886001600160a01b03166001600160a01b0316815260200190815260200160002081905550336001600160a01b03167ff83f028d4f1bb58a9a6395ca0565d41b4b9029fe4d387e028d63bd5a82a59a9b8360405161053a91815260200190565b60405180910390a2509c9b505050505050505050505050565b6000546001600160a01b031633146105865760405162461bcd60e51b815260040161057d90610f6b565b60405180910390fd5b6006805460ff1916911515919091179055565b6000546001600160a01b031633146105c35760405162461bcd60e51b815260040161057d90610f6b565b6001600160a01b03811661060f57600080546040516001600160a01b03909116914780156108fc02929091818181858888f1935050505015801561060b573d6000803e3d6000fd5b5050565b806001600160a01b03811663a9059cbb6106316000546001600160a01b031690565b6040516370a0823160e01b81523060048201526001600160a01b038516906370a082319060240160206040518083038186803b15801561067057600080fd5b505afa158015610684573d6000803e3d6000fd5b505050506040513d601f19601f820116820180604052508101906106a89190610e50565b6040516001600160e01b031960e085901b1681526001600160a01b0390921660048301526024820152604401602060405180830381600087803b1580156106ee57600080fd5b505af1158015610702573d6000803e3d6000fd5b505050506040513d601f19601f820116820180604052508101906107269190610e1a565b50505b50565b6000546001600160a01b031633146107565760405162461bcd60e51b815260040161057d90610f6b565b801561072957600455565b6000546001600160a01b0316331461078b5760405162461bcd60e51b815260040161057d90610f6b565b610795600061096b565b565b600654829060ff16156107a957600080fd5b6000818152600160208190526040909120015442108015906107dc57506000818152600160205260409020600201544211155b6107e557600080fd5b346107f18484836109bb565b60008060006108086108038886610a2c565b610b09565b92509250925061081a87878585610b51565b60408051858152602081018590526001600160a01b0388169133917f623b3804fa71d67900d064613da8f94b9617215ee90799290593e1745087ad18910160405180910390a361086a8782610b5d565b610875878786610bad565b50505050505050565b6000546001600160a01b031633146108a85760405162461bcd60e51b815260040161057d90610f6b565b801561072957600555565b6000546001600160a01b031633146108dd5760405162461bcd60e51b815260040161057d90610f6b565b6001600160a01b0381166109425760405162461bcd60e51b815260206004820152602660248201527f4f776e61626c653a206e6577206f776e657220697320746865207a65726f206160448201526564647265737360d01b606482015260840161057d565b6107298161096b565b60006001600360008282546109609190611036565b925050819055905090565b600080546001600160a01b038381166001600160a01b0319831681178455604051919092169283917f8be0079c531659141344cd1fd0a4f28419497f9722a3daafe3b4186f6b6457e09190a35050565b600654839060ff16156109cd57600080fd5b600081815260016020819052604090912001544210801590610a0057506000818152600160205260409020600201544211155b610a0957600080fd5b6001600160a01b038316610a1c57600080fd5b81610a2657600080fd5b50505050565b6000828152600160205260408120600481015415801590610a51575060008160030154115b15610ab25780600a0154610a7c603c610a766103e8856003015442610a76919061117d565b90610bd5565b10610aad57600b8101546005820154610aa1916001600160a01b03169060ff16610be8565b60048201554260038201555b610ade565b600b8101546005820154610ad2916001600160a01b03169060ff16610be8565b60048201554260038201555b6004810154610aff90610af985670de0b6b3a7640000610bd5565b90610cb6565b9150505b92915050565b600080600080610b1b85600454610cc2565b90506000610b2b86600554610cc2565b90506000610b4382610b3d8986610ce2565b90610ce2565b979296509094509092505050565b610a2684848484610cee565b6000828152600160205260409020600c01546001600160a01b03166108fc610b85833461117d565b6040518115909202916000818181858888f19350505050158015610726573d6000803e3d6000fd5b60008381526001602052604090206007810154610bca9083610da0565b600790910155505050565b6000610be1828461104e565b9392505050565b600082600660016101000a8154816001600160a01b0302191690836001600160a01b031602179055506000600660019054906101000a90046001600160a01b03166001600160a01b031663feaf968c6040518163ffffffff1660e01b815260040160a06040518083038186803b158015610c6157600080fd5b505afa158015610c75573d6000803e3d6000fd5b505050506040513d601f19601f82011682018060405250810190610c999190610f1b565b50505091505082600a610cac91906110b3565b610aff908261104e565b6000610be1828461115e565b6000808311610cd357506000610b03565b610be16064610a768585610cb6565b6000610be1828461117d565b6000848152600160205260409020600d8101546001600160a01b031663a9059cbb85610d1a858761117d565b6040516001600160e01b031960e085901b1681526001600160a01b0390921660048301526024820152604401602060405180830381600087803b158015610d6057600080fd5b505af1158015610d74573d6000803e3d6000fd5b505050506040513d601f19601f82011682018060405250810190610d989190610e1a565b505050505050565b6000610be18284611036565b80356001600160a01b0381168114610dc357600080fd5b919050565b805169ffffffffffffffffffff81168114610dc357600080fd5b600060208284031215610df457600080fd5b610be182610dac565b600060208284031215610e0f57600080fd5b8135610be1816111aa565b600060208284031215610e2c57600080fd5b8151610be1816111aa565b600060208284031215610e4957600080fd5b5035919050565b600060208284031215610e6257600080fd5b5051919050565b60008060408385031215610e7c57600080fd5b82359150610e8c60208401610dac565b90509250929050565b60008060008060008060008060006101208a8c031215610eb457600080fd5b8935985060208a0135975060408a0135965060608a013560ff81168114610eda57600080fd5b955060808a0135945060a08a0135935060c08a01359250610efd60e08b01610dac565b9150610f0c6101008b01610dac565b90509295985092959850929598565b600080600080600060a08688031215610f3357600080fd5b610f3c86610dc8565b9450602086015193506040860151925060608601519150610f5f60808701610dc8565b90509295509295909350565b6020808252818101527f4f776e61626c653a2063616c6c6572206973206e6f7420746865206f776e6572604082015260600190565b60006101c0820190508f82528e60208301528d60408301528c60608301528b608083015260ff8b1660a08301528960c08301528860e083015287610100830152866101208301528561014083015260018060a01b0385166101608301526110136101808301856001600160a01b03169052565b6001600160a01b0383166101a08301529f9e505050505050505050505050505050565b6000821982111561104957611049611194565b500190565b60008261106b57634e487b7160e01b600052601260045260246000fd5b500490565b600181815b808511156110ab57816000190482111561109157611091611194565b8085161561109e57918102915b93841c9390800290611075565b509250929050565b6000610be160ff8416836000826110cc57506001610b03565b816110d957506000610b03565b81600181146110ef57600281146110f957611115565b6001915050610b03565b60ff84111561110a5761110a611194565b50506001821b610b03565b5060208310610133831016604e8410600b8410161715611138575081810a610b03565b6111428383611070565b806000190482111561115657611156611194565b029392505050565b600081600019048311821515161561117857611178611194565b500290565b60008282101561118f5761118f611194565b500390565b634e487b7160e01b600052601160045260246000fd5b801515811461072957600080fdfea2646970667358221220f4a5d34b969a669a6bef22a2318a76b065840ee58d8a104eade985c25296f02c64736f6c63430008070033",
    "sourcePath": "c:/Users/dalton.brady/Documents/GitHub/smart-contracts/contracts/bsc/token-sales/TokenSaleHost.sol",
    "compiler": {
        "name": "solc",
        "version": "0.8.7+commit.e28d00a7"
    },
    "functionHashes": {
        "buyTokens(uint256,address)": "c625e9b1",
        "create(uint256,uint256,uint256,uint8,uint256,uint256,uint256,address,address)": "08f61ae4",
        "hasClosed(uint256)": "375952fd",
        "liquidate(address)": "2f865568",
        "lock(bool)": "0dd0a042",
        "owner()": "8da5cb5b",
        "renounceOwnership()": "715018a6",
        "sessions(uint256)": "83c4b7a3",
        "setCoinFee(uint256)": "d6d45e01",
        "setTokenFee(uint256)": "31b31b88",
        "transferOwnership(address)": "f2fde38b"
    },
    "gasEstimates": {
        "creation": {
            "codeDepositCost": "918000",
            "executionCost": "76017",
            "totalCost": "994017"
        },
        "external": {
            "": "184",
            "buyTokens(uint256,address)": "infinite",
            "create(uint256,uint256,uint256,uint8,uint256,uint256,uint256,address,address)": "infinite",
            "hasClosed(uint256)": "2544",
            "liquidate(address)": "infinite",
            "lock(bool)": "26686",
            "owner()": "2345",
            "renounceOwnership()": "28114",
            "sessions(uint256)": "30413",
            "setCoinFee(uint256)": "24571",
            "setTokenFee(uint256)": "24550",
            "transferOwnership(address)": "28419"
        },
        "internal": {
            "_calculateFee(uint256,uint256)": "infinite",
            "_deliverTokens(uint256,address,uint256,uint256)": "infinite",
            "_forwardFunds(uint256,uint256)": "infinite",
            "_getId()": "24318",
            "_getLatestPrice(address,uint8)": "infinite",
            "_getTokenAmount(uint256,uint256)": "infinite",
            "_getValues(uint256)": "infinite",
            "_postValidatePurchase(uint256,address,uint256)": "24426",
            "_preValidatePurchase(uint256,address,uint256)": "6615",
            "_processPurchase(uint256,address,uint256,uint256)": "infinite"
        }
    }
}